{
  "address": "0x21719EBb2fb6f2b2E615866a3F9b1444775e669c",
  "abi": [
    {
      "inputs": [
        {
          "internalType": "uint32",
          "name": "_domain",
          "type": "uint32"
        },
        {
          "internalType": "uint32",
          "name": "_mirrorDomain",
          "type": "uint32"
        },
        {
          "internalType": "address",
          "name": "_amb",
          "type": "address"
        },
        {
          "internalType": "address",
          "name": "_rootManager",
          "type": "address"
        },
        {
          "internalType": "address",
          "name": "_mirrorConnector",
          "type": "address"
        },
        {
          "internalType": "uint256",
          "name": "_gasCap",
          "type": "uint256"
        },
        {
          "internalType": "uint16",
          "name": "_mirrorChainId",
          "type": "uint16"
        }
      ],
      "stateMutability": "nonpayable",
      "type": "constructor"
    },
    {
      "inputs": [],
      "name": "Connector__processMessage_notUsed",
      "type": "error"
    },
    {
      "inputs": [],
      "name": "ProposedOwnable__onlyOwner_notOwner",
      "type": "error"
    },
    {
      "inputs": [],
      "name": "ProposedOwnable__onlyProposed_notProposedOwner",
      "type": "error"
    },
    {
      "inputs": [],
      "name": "ProposedOwnable__ownershipDelayElapsed_delayNotElapsed",
      "type": "error"
    },
    {
      "inputs": [],
      "name": "ProposedOwnable__proposeNewOwner_invalidProposal",
      "type": "error"
    },
    {
      "inputs": [],
      "name": "ProposedOwnable__proposeNewOwner_noOwnershipChange",
      "type": "error"
    },
    {
      "inputs": [],
      "name": "ProposedOwnable__renounceOwnership_invalidProposal",
      "type": "error"
    },
    {
      "inputs": [],
      "name": "ProposedOwnable__renounceOwnership_noProposal",
      "type": "error"
    },
    {
      "anonymous": false,
      "inputs": [
        {
          "indexed": false,
          "internalType": "uint256",
          "name": "_previous",
          "type": "uint256"
        },
        {
          "indexed": false,
          "internalType": "uint256",
          "name": "_updated",
          "type": "uint256"
        }
      ],
      "name": "GasCapUpdated",
      "type": "event"
    },
    {
      "anonymous": false,
      "inputs": [
        {
          "indexed": false,
          "internalType": "bytes",
          "name": "data",
          "type": "bytes"
        },
        {
          "indexed": false,
          "internalType": "address",
          "name": "caller",
          "type": "address"
        }
      ],
      "name": "MessageProcessed",
      "type": "event"
    },
    {
      "anonymous": false,
      "inputs": [
        {
          "indexed": false,
          "internalType": "bytes",
          "name": "data",
          "type": "bytes"
        },
        {
          "indexed": false,
          "internalType": "bytes",
          "name": "encodedData",
          "type": "bytes"
        },
        {
          "indexed": false,
          "internalType": "address",
          "name": "caller",
          "type": "address"
        }
      ],
      "name": "MessageSent",
      "type": "event"
    },
    {
      "anonymous": false,
      "inputs": [
        {
          "indexed": false,
          "internalType": "address",
          "name": "previous",
          "type": "address"
        },
        {
          "indexed": false,
          "internalType": "address",
          "name": "current",
          "type": "address"
        }
      ],
      "name": "MirrorConnectorUpdated",
      "type": "event"
    },
    {
      "anonymous": false,
      "inputs": [
        {
          "indexed": true,
          "internalType": "uint32",
          "name": "domain",
          "type": "uint32"
        },
        {
          "indexed": true,
          "internalType": "uint32",
          "name": "mirrorDomain",
          "type": "uint32"
        },
        {
          "indexed": false,
          "internalType": "address",
          "name": "amb",
          "type": "address"
        },
        {
          "indexed": false,
          "internalType": "address",
          "name": "rootManager",
          "type": "address"
        },
        {
          "indexed": false,
          "internalType": "address",
          "name": "mirrorConnector",
          "type": "address"
        }
      ],
      "name": "NewConnector",
      "type": "event"
    },
    {
      "anonymous": false,
      "inputs": [
        {
          "indexed": true,
          "internalType": "address",
          "name": "proposedOwner",
          "type": "address"
        }
      ],
      "name": "OwnershipProposed",
      "type": "event"
    },
    {
      "anonymous": false,
      "inputs": [
        {
          "indexed": true,
          "internalType": "address",
          "name": "previousOwner",
          "type": "address"
        },
        {
          "indexed": true,
          "internalType": "address",
          "name": "newOwner",
          "type": "address"
        }
      ],
      "name": "OwnershipTransferred",
      "type": "event"
    },
    {
      "inputs": [],
      "name": "AMB",
      "outputs": [
        {
          "internalType": "address",
          "name": "",
          "type": "address"
        }
      ],
      "stateMutability": "view",
      "type": "function"
    },
    {
      "inputs": [],
      "name": "DOMAIN",
      "outputs": [
        {
          "internalType": "uint32",
          "name": "",
          "type": "uint32"
        }
      ],
      "stateMutability": "view",
      "type": "function"
    },
    {
      "inputs": [],
      "name": "MIRROR_CHAIN_ID",
      "outputs": [
        {
          "internalType": "uint16",
          "name": "",
          "type": "uint16"
        }
      ],
      "stateMutability": "view",
      "type": "function"
    },
    {
      "inputs": [],
      "name": "MIRROR_DOMAIN",
      "outputs": [
        {
          "internalType": "uint32",
          "name": "",
          "type": "uint32"
        }
      ],
      "stateMutability": "view",
      "type": "function"
    },
    {
      "inputs": [],
      "name": "ROOT_MANAGER",
      "outputs": [
        {
          "internalType": "address",
          "name": "",
          "type": "address"
        }
      ],
      "stateMutability": "view",
      "type": "function"
    },
    {
      "inputs": [],
      "name": "acceptProposedOwner",
      "outputs": [],
      "stateMutability": "nonpayable",
      "type": "function"
    },
    {
      "inputs": [],
      "name": "delay",
      "outputs": [
        {
          "internalType": "uint256",
          "name": "",
          "type": "uint256"
        }
      ],
      "stateMutability": "view",
      "type": "function"
    },
    {
      "inputs": [],
      "name": "mirrorConnector",
      "outputs": [
        {
          "internalType": "address",
          "name": "",
          "type": "address"
        }
      ],
      "stateMutability": "view",
      "type": "function"
    },
    {
      "inputs": [],
      "name": "owner",
      "outputs": [
        {
          "internalType": "address",
          "name": "",
          "type": "address"
        }
      ],
      "stateMutability": "view",
      "type": "function"
    },
    {
      "inputs": [
        {
          "internalType": "bytes",
          "name": "_data",
          "type": "bytes"
        }
      ],
      "name": "processMessage",
      "outputs": [],
      "stateMutability": "nonpayable",
      "type": "function"
    },
    {
      "inputs": [
        {
          "internalType": "bytes32",
          "name": "",
          "type": "bytes32"
        }
      ],
      "name": "processedWhMessages",
      "outputs": [
        {
          "internalType": "bool",
          "name": "",
          "type": "bool"
        }
      ],
      "stateMutability": "view",
      "type": "function"
    },
    {
      "inputs": [
        {
          "internalType": "address",
          "name": "newlyProposed",
          "type": "address"
        }
      ],
      "name": "proposeNewOwner",
      "outputs": [],
      "stateMutability": "nonpayable",
      "type": "function"
    },
    {
      "inputs": [],
      "name": "proposed",
      "outputs": [
        {
          "internalType": "address",
          "name": "",
          "type": "address"
        }
      ],
      "stateMutability": "view",
      "type": "function"
    },
    {
      "inputs": [],
      "name": "proposedTimestamp",
      "outputs": [
        {
          "internalType": "uint256",
          "name": "",
          "type": "uint256"
        }
      ],
      "stateMutability": "view",
      "type": "function"
    },
    {
      "inputs": [
        {
          "internalType": "uint256",
          "name": "gasLimit",
          "type": "uint256"
        }
      ],
      "name": "quoteEVMDeliveryPrice",
      "outputs": [
        {
          "internalType": "uint256",
          "name": "cost",
          "type": "uint256"
        }
      ],
      "stateMutability": "view",
      "type": "function"
    },
    {
      "inputs": [
        {
          "internalType": "bytes",
          "name": "payload",
          "type": "bytes"
        },
        {
          "internalType": "bytes[]",
          "name": "additionalVaas",
          "type": "bytes[]"
        },
        {
          "internalType": "bytes32",
          "name": "sourceAddress",
          "type": "bytes32"
        },
        {
          "internalType": "uint16",
          "name": "sourceChain",
          "type": "uint16"
        },
        {
          "internalType": "bytes32",
          "name": "deliveryHash",
          "type": "bytes32"
        }
      ],
      "name": "receiveWormholeMessages",
      "outputs": [],
      "stateMutability": "payable",
      "type": "function"
    },
    {
      "inputs": [],
      "name": "relayerAddress",
      "outputs": [
        {
          "internalType": "address",
          "name": "",
          "type": "address"
        }
      ],
      "stateMutability": "view",
      "type": "function"
    },
    {
      "inputs": [],
      "name": "renounceOwnership",
      "outputs": [],
      "stateMutability": "nonpayable",
      "type": "function"
    },
    {
      "inputs": [],
      "name": "renounced",
      "outputs": [
        {
          "internalType": "bool",
          "name": "",
          "type": "bool"
        }
      ],
      "stateMutability": "view",
      "type": "function"
    },
    {
      "inputs": [
        {
          "internalType": "bytes",
          "name": "_data",
          "type": "bytes"
        },
        {
          "internalType": "bytes",
          "name": "_encodedData",
          "type": "bytes"
        }
      ],
      "name": "sendMessage",
      "outputs": [],
      "stateMutability": "payable",
      "type": "function"
    },
    {
      "inputs": [
        {
          "internalType": "uint256",
          "name": "_gasCap",
          "type": "uint256"
        }
      ],
      "name": "setGasCap",
      "outputs": [],
      "stateMutability": "nonpayable",
      "type": "function"
    },
    {
      "inputs": [
        {
          "internalType": "address",
          "name": "_mirrorConnector",
          "type": "address"
        }
      ],
      "name": "setMirrorConnector",
      "outputs": [],
      "stateMutability": "nonpayable",
      "type": "function"
    },
    {
      "inputs": [
        {
          "internalType": "address",
          "name": "_expected",
          "type": "address"
        }
      ],
      "name": "verifySender",
      "outputs": [
        {
          "internalType": "bool",
          "name": "",
          "type": "bool"
        }
      ],
      "stateMutability": "nonpayable",
      "type": "function"
    },
    {
      "stateMutability": "payable",
      "type": "receive"
    }
  ],
  "transactionHash": "0x3272a852f30a80339325191d0ae1f80f5caffb7d2464df8a3e4cc7c0501b82f0",
  "args": [
    "6648936",
    "6450786",
    "0x27428DD2d3DD32A4D7f7C497eAaa23130d894911",
    "0x13dD6168C0027E75FE76AEA000e9e742C862a281",
    "0x0000000000000000000000000000000000000000",
    "300000",
    "4"
  ],
  "numDeployments": 1,
  "solcInputHash": "ba23b9ecb760c54f6f135f687b99c1ec",
  "bytecode": "0x6101406040523480156200001257600080fd5b5060405162001881380380620018818339810160408190526200003591620002f8565b848282818a8a858a8a84848484846200004e33620001b7565b8463ffffffff16600003620000995760405162461bcd60e51b815260206004820152600c60248201526b32b6b83a3c903237b6b0b4b760a11b60448201526064015b60405180910390fd5b6001600160a01b038216620000e55760405162461bcd60e51b815260206004820152601160248201527032b6b83a3c903937b7ba26b0b730b3b2b960791b604482015260640162000090565b63ffffffff8086166080526001600160a01b0380851660a05283811660c05290851660e0528116156200011d576200011d816200021c565b604080516001600160a01b0385811682528481166020830152831681830152905163ffffffff86811692908816917f4f9c27c2fe3f84576ea469d367d044da53c45e951617e8389f2b5ed8db9d25f09181900360600190a35050505050505050505062000190816200028560201b60201c565b506001600160a01b03909216610100525061ffff1661012052506200038e95505050505050565b600080546040516001600160a01b03808516939216917f8be0079c531659141344cd1fd0a4f28419497f9722a3daafe3b4186f6b6457e091a3600080546001600160a01b039092166001600160a01b0319928316178155600255600180549091169055565b600354604080516001600160a01b03928316815291831660208301527fc77bec288fc88f168427f2f7da682eadb26cac89d8d591af6e443da98dff2bbc910160405180910390a1600380546001600160a01b0319166001600160a01b0392909216919091179055565b60045460408051918252602082018390527f877a02cb809da0364d23adca3cd50c451b53f279d3df632e1fc11eb66335bce5910160405180910390a1600455565b805163ffffffff81168114620002db57600080fd5b919050565b80516001600160a01b0381168114620002db57600080fd5b600080600080600080600060e0888a0312156200031457600080fd5b6200031f88620002c6565b96506200032f60208901620002c6565b95506200033f60408901620002e0565b94506200034f60608901620002e0565b93506200035f60808901620002e0565b925060a0880151915060c088015161ffff811681146200037e57600080fd5b8091505092959891949750929550565b60805160a05160c05160e051610100516101205161145d62000424600039600081816103ed015281816104e5015281816106f30152610ec20152600081816101b00152818161051d015281816107630152610e930152600081816101620152610bbb01526000818161031b015281816105a10152610b940152600081816104910152610656015260006102c7015261145d6000f3fe6080604052600436106101445760003560e01c80636a42b8f8116100b6578063c8a4d6901161006f578063c8a4d690146103db578063cc39428314610422578063d1851c9214610442578063d232c22014610460578063d69f9d611461047f578063db1b7659146104b357600080fd5b80636a42b8f81461033d578063715018a6146103535780637850b020146103685780638da5cb5b14610388578063b1f8100d146103a6578063c5b350df146103c657600080fd5b806348e6fa231161010857806348e6fa231461026d5780634ff746f614610282578063529dca32146102a257806352a9674b146102b55780635bd11efc146102e95780635f61e3ec1461030957600080fd5b8063141684161461015057806318a7cca81461019e57806318c81709146101ea5780631c79166e1461022a5780633cf52ffb1461025857600080fd5b3661014b57005b600080fd5b34801561015c57600080fd5b506101847f000000000000000000000000000000000000000000000000000000000000000081565b60405163ffffffff90911681526020015b60405180910390f35b3480156101aa57600080fd5b506101d27f000000000000000000000000000000000000000000000000000000000000000081565b6040516001600160a01b039091168152602001610195565b3480156101f657600080fd5b5061021a610205366004610fb0565b60056020526000908152604090205460ff1681565b6040519015158152602001610195565b34801561023657600080fd5b5061024a610245366004610fb0565b6104d3565b604051908152602001610195565b34801561026457600080fd5b5060025461024a565b61028061027b366004611080565b610596565b005b34801561028e57600080fd5b5061028061029d3660046110e4565b61064b565b6102806102b0366004611138565b6106f1565b3480156102c157600080fd5b506101847f000000000000000000000000000000000000000000000000000000000000000081565b3480156102f557600080fd5b50610280610304366004611241565b610840565b34801561031557600080fd5b506101d27f000000000000000000000000000000000000000000000000000000000000000081565b34801561034957600080fd5b5062093a8061024a565b34801561035f57600080fd5b50610280610877565b34801561037457600080fd5b50610280610383366004610fb0565b61092b565b34801561039457600080fd5b506000546001600160a01b03166101d2565b3480156103b257600080fd5b506102806103c1366004611241565b61095f565b3480156103d257600080fd5b506102806109fd565b3480156103e757600080fd5b5061040f7f000000000000000000000000000000000000000000000000000000000000000081565b60405161ffff9091168152602001610195565b34801561042e57600080fd5b506003546101d2906001600160a01b031681565b34801561044e57600080fd5b506001546001600160a01b03166101d2565b34801561046c57600080fd5b506000546001600160a01b03161561021a565b34801561048b57600080fd5b506101d27f000000000000000000000000000000000000000000000000000000000000000081565b3480156104bf57600080fd5b5061021a6104ce366004611241565b610a6d565b60405163c23ee3c360e01b815261ffff7f000000000000000000000000000000000000000000000000000000000000000016600482015260006024820181905260448201839052907f00000000000000000000000000000000000000000000000000000000000000006001600160a01b03169063c23ee3c3906064016040805180830381865afa15801561056b573d6000803e3d6000fd5b505050506040513d601f19601f8201168201806040525081019061058f9190611271565b5092915050565b336001600160a01b037f000000000000000000000000000000000000000000000000000000000000000016146106025760405162461bcd60e51b815260206004820152600c60248201526b10b937b7ba26b0b730b3b2b960a11b60448201526064015b60405180910390fd5b61060c8282610a7e565b7fdcaa37a042a0087de79018c629bbd29cee82ca80bd9be394e1696bf9e935507782823360405161063f939291906112db565b60405180910390a15050565b336001600160a01b037f000000000000000000000000000000000000000000000000000000000000000016146106ac5760405162461bcd60e51b81526004016105f99060208082526004908201526310a0a6a160e11b604082015260600190565b6106b581610aab565b7fb3abc57bfeebd2cac918901db582f71972a8e628bccf19f5ae3e3482b98a5ced81336040516106e6929190611319565b60405180910390a150565b7f000000000000000000000000000000000000000000000000000000000000000061ffff168261ffff16146107585760405162461bcd60e51b815260206004820152600d60248201526c10b9b7bab931b29031b430b4b760991b60448201526064016105f9565b336001600160a01b037f000000000000000000000000000000000000000000000000000000000000000016146107bb5760405162461bcd60e51b815260206004820152600860248201526710b932b630bcb2b960c11b60448201526064016105f9565b60008181526005602052604090205460ff161561080e5760405162461bcd60e51b8152602060048201526011602482015270185b1c9958591e481c1c9bd8d95cdcd959607a1b60448201526064016105f9565b6000818152600560205260409020805460ff1916600117905561083961083384610ac4565b86610b0b565b5050505050565b6000546001600160a01b0316331461086b576040516311a8a1bb60e31b815260040160405180910390fd5b61087481610c70565b50565b6000546001600160a01b031633146108a2576040516311a8a1bb60e31b815260040160405180910390fd5b62093a80600254426108b49190611343565b116108d2576040516324e0285f60e21b815260040160405180910390fd5b6002546000036108f557604051630e4b303f60e21b815260040160405180910390fd5b6001546001600160a01b03161561091f576040516323295ef960e01b815260040160405180910390fd5b6109296000610cd9565b565b6000546001600160a01b03163314610956576040516311a8a1bb60e31b815260040160405180910390fd5b61087481610d3e565b6000546001600160a01b0316331461098a576040516311a8a1bb60e31b815260040160405180910390fd5b6001546001600160a01b0382811691161480156109a8575060025415155b156109c6576040516311bc066560e11b815260040160405180910390fd5b6000546001600160a01b038083169116036109f457604051634a2fb73f60e11b815260040160405180910390fd5b61087481610d7f565b6001546001600160a01b03163314610a28576040516311a7f27160e11b815260040160405180910390fd5b62093a8060025442610a3a9190611343565b11610a58576040516324e0285f60e21b815260040160405180910390fd5b600154610929906001600160a01b0316610cd9565b6000610a7882610dcd565b92915050565b600354610aa7906001600160a01b0316610aa06000546001600160a01b031690565b8484610de6565b5050565b6040516316c2fdb560e21b815260040160405180910390fd5b600060a082901c15610b075760405162461bcd60e51b815260206004820152600c60248201526b2165766d206164647265737360a01b60448201526064016105f9565b5090565b610b1482610dcd565b610b4f5760405162461bcd60e51b815260206004820152600c60248201526b10b61921b7b73732b1ba37b960a11b60448201526064016105f9565b8051602014610b8a5760405162461bcd60e51b8152602060048201526007602482015266042d8cadccee8d60cb1b60448201526064016105f9565b6001600160a01b037f000000000000000000000000000000000000000000000000000000000000000016638e7d93fa7f0000000000000000000000000000000000000000000000000000000000000000610be384611364565b6040516001600160e01b031960e085901b16815263ffffffff9290921660048301526024820152604401600060405180830381600087803b158015610c2757600080fd5b505af1158015610c3b573d6000803e3d6000fd5b505050507fb3abc57bfeebd2cac918901db582f71972a8e628bccf19f5ae3e3482b98a5ced813360405161063f929190611319565b600354604080516001600160a01b03928316815291831660208301527fc77bec288fc88f168427f2f7da682eadb26cac89d8d591af6e443da98dff2bbc910160405180910390a1600380546001600160a01b0319166001600160a01b0392909216919091179055565b600080546040516001600160a01b03808516939216917f8be0079c531659141344cd1fd0a4f28419497f9722a3daafe3b4186f6b6457e091a3600080546001600160a01b039092166001600160a01b0319928316178155600255600180549091169055565b60045460408051918252602082018390527f877a02cb809da0364d23adca3cd50c451b53f279d3df632e1fc11eb66335bce5910160405180910390a1600455565b42600255600180546001600160a01b0319166001600160a01b0383169081179091556040517f6ab4d119f23076e8ad491bc65ce85f017fb0591dce08755ba8591059cc51737a90600090a250565b6003546000906001600160a01b03838116911614610a78565b8151602014610e265760405162461bcd60e51b815260206004820152600c60248201526b042c8c2e8c240d8cadccee8d60a31b60448201526064016105f9565b6000610e3182610f43565b90506000610e3e826104d3565b9050348114610e7c5760405162461bcd60e51b815260206004820152600a602482015269216d73672e76616c756560b01b60448201526064016105f9565b6040516312d729bd60e21b81526001600160a01b037f00000000000000000000000000000000000000000000000000000000000000001690634b5ca6f4908390610ef7907f0000000000000000000000000000000000000000000000000000000000000000908b908a906000908a9085908f9060040161138b565b60206040518083038185885af1158015610f15573d6000803e3d6000fd5b50505050506040513d601f19601f82011682018060405250810190610f3a91906113e4565b50505050505050565b60008151602014610f855760405162461bcd60e51b815260206004820152600c60248201526b042c8c2e8c240d8cadccee8d60a31b60448201526064016105f9565b610a7882806020019051810190610f9c919061140e565b6000600454821115610b0757505060045490565b600060208284031215610fc257600080fd5b5035919050565b634e487b7160e01b600052604160045260246000fd5b604051601f8201601f1916810167ffffffffffffffff8111828210171561100857611008610fc9565b604052919050565b600082601f83011261102157600080fd5b813567ffffffffffffffff81111561103b5761103b610fc9565b61104e601f8201601f1916602001610fdf565b81815284602083860101111561106357600080fd5b816020850160208301376000918101602001919091529392505050565b6000806040838503121561109357600080fd5b823567ffffffffffffffff808211156110ab57600080fd5b6110b786838701611010565b935060208501359150808211156110cd57600080fd5b506110da85828601611010565b9150509250929050565b6000602082840312156110f657600080fd5b813567ffffffffffffffff81111561110d57600080fd5b61111984828501611010565b949350505050565b803561ffff8116811461113357600080fd5b919050565b600080600080600060a0868803121561115057600080fd5b853567ffffffffffffffff8082111561116857600080fd5b61117489838a01611010565b965060209150818801358181111561118b57600080fd5b8801601f81018a1361119c57600080fd5b8035828111156111ae576111ae610fc9565b8060051b6111bd858201610fdf565b918252828101850191858101908d8411156111d757600080fd5b86850192505b83831015611213578235868111156111f55760008081fd5b6112038f8983890101611010565b83525091860191908601906111dd565b809a50505050505050506040860135925061123060608701611121565b949793965091946080013592915050565b60006020828403121561125357600080fd5b81356001600160a01b038116811461126a57600080fd5b9392505050565b6000806040838503121561128457600080fd5b505080516020909101519092909150565b6000815180845260005b818110156112bb5760208185018101518683018201520161129f565b506000602082860101526020601f19601f83011685010191505092915050565b6060815260006112ee6060830186611295565b82810360208401526113008186611295565b91505060018060a01b0383166040830152949350505050565b60408152600061132c6040830185611295565b905060018060a01b03831660208301529392505050565b81810381811115610a7857634e487b7160e01b600052601160045260246000fd5b80516020808301519190811015611385576000198160200360031b1b821691505b50919050565b600061ffff808a16835260018060a01b03808a16602085015260e060408501526113b860e085018a611295565b925087606085015286608085015281861660a085015280851660c0850152505098975050505050505050565b6000602082840312156113f657600080fd5b815167ffffffffffffffff8116811461126a57600080fd5b60006020828403121561142057600080fd5b505191905056fea26469706673582212200ef04c47d3f0c768bcf2b159fea15e9e0ebe7d14d31232ff303661f11f0b874164736f6c63430008110033",
  "devdoc": {
    "kind": "dev",
    "methods": {
      "processMessage(bytes)": {
        "details": "This is called by AMBs to process messages originating from mirror connector"
      },
      "receiveWormholeMessages(bytes,bytes[],bytes32,uint16,bytes32)": {
        "params": {
          "additionalVaas": "- Additional VAAs which were requested to be included in this delivery.   They are guaranteed to all be included and in the same order as was specified in the     delivery request.",
          "deliveryHash": "- the VAA hash of the deliveryVAA. NOTE: These signedVaas are NOT verified by the Wormhole core contract prior to being provided     to this call. Always make sure `parseAndVerify()` is called on the Wormhole core contract     before trusting the content of a raw VAA, otherwise the VAA may be invalid or malicious.",
          "payload": "- an arbitrary message which was included in the delivery by the     requester.",
          "sourceAddress": "- the (wormhole format) address on the sending chain which requested     this delivery.",
          "sourceChain": "- the wormhole chain ID where this delivery was requested."
        }
      },
      "sendMessage(bytes,bytes)": {
        "details": "This is called by the root manager *only* on mainnet to propagate the aggregate root"
      }
    },
    "version": 1
  },
  "userdoc": {
    "events": {
      "GasCapUpdated(uint256,uint256)": {
        "notice": "Emitted when admin updates the gas cap"
      },
      "MessageProcessed(bytes,address)": {
        "notice": "Emitted whenever a message is successfully received over an AMB"
      },
      "MessageSent(bytes,bytes,address)": {
        "notice": "Emitted whenever a message is successfully sent over an AMB"
      }
    },
    "kind": "user",
    "methods": {
      "AMB()": {
        "notice": "Address of the AMB on this domain."
      },
      "DOMAIN()": {
        "notice": "The domain of this Messaging (i.e. Connector) contract."
      },
      "MIRROR_DOMAIN()": {
        "notice": "The domain of the corresponding messaging (i.e. Connector) contract."
      },
      "ROOT_MANAGER()": {
        "notice": "RootManager contract address."
      },
      "acceptProposedOwner()": {
        "notice": "Transfers ownership of the contract to a new account (`newOwner`). Can only be called by the current owner."
      },
      "delay()": {
        "notice": "Returns the delay period before a new owner can be accepted."
      },
      "mirrorConnector()": {
        "notice": "Connector on L2 for L1 connectors, and vice versa."
      },
      "owner()": {
        "notice": "Returns the address of the current owner."
      },
      "processMessage(bytes)": {
        "notice": "Processes a message received by an AMB"
      },
      "proposeNewOwner(address)": {
        "notice": "Sets the timestamp for an owner to be proposed, and sets the newly proposed owner as step 1 in a 2-step process"
      },
      "proposed()": {
        "notice": "Returns the address of the proposed owner."
      },
      "proposedTimestamp()": {
        "notice": "Returns the address of the proposed owner."
      },
      "receiveWormholeMessages(bytes,bytes[],bytes32,uint16,bytes32)": {
        "notice": "When a `send` is performed with this contract as the target, this function will be     invoked.   To get the address that will invoke this contract, call the `getDeliveryAddress()` function     on this chain (the target chain)'s WormholeRelayer contract NOTE: This function should be restricted such that only `getDeliveryAddress()` can call it. We also recommend that this function:   - Stores all received `deliveryData.deliveryHash`s in a mapping `(bytes32 => bool)`, and       on every call, checks that deliveryData.deliveryHash has not already been stored in the       map (This is to prevent other users maliciously trying to relay the same message)   - Checks that `deliveryData.sourceChain` and `deliveryData.sourceAddress` are indeed who       you expect to have requested the calling of `send` or `forward` on the source chain The invocation of this function corresponding to the `send` request will have msg.value equal   to the receiverValue specified in the send request. If the invocation of this function reverts or exceeds the gas limit (`maxTransactionFee`)   specified by the send requester, this delivery will result in a `ReceiverFailure`."
      },
      "renounceOwnership()": {
        "notice": "Renounces ownership of the contract after a delay"
      },
      "renounced()": {
        "notice": "Indicates if the ownership has been renounced() by checking if current owner is address(0)"
      },
      "sendMessage(bytes,bytes)": {
        "notice": "Sends a message over the amb"
      },
      "setMirrorConnector(address)": {
        "notice": "Sets the address of the l2Connector for this domain"
      },
      "verifySender(address)": {
        "notice": "Checks the cross domain sender for a given address"
      }
    },
    "version": 1
  },
  "storageLayout": {
    "storage": [
      {
        "astId": 4610,
        "contract": "contracts/messaging/connectors/wormhole/WormholeHubConnector.sol:WormholeHubConnector",
        "label": "_owner",
        "offset": 0,
        "slot": "0",
        "type": "t_address"
      },
      {
        "astId": 4612,
        "contract": "contracts/messaging/connectors/wormhole/WormholeHubConnector.sol:WormholeHubConnector",
        "label": "_proposed",
        "offset": 0,
        "slot": "1",
        "type": "t_address"
      },
      {
        "astId": 4614,
        "contract": "contracts/messaging/connectors/wormhole/WormholeHubConnector.sol:WormholeHubConnector",
        "label": "_proposedOwnershipTimestamp",
        "offset": 0,
        "slot": "2",
        "type": "t_uint256"
      },
      {
        "astId": 1520,
        "contract": "contracts/messaging/connectors/wormhole/WormholeHubConnector.sol:WormholeHubConnector",
        "label": "mirrorConnector",
        "offset": 0,
        "slot": "3",
        "type": "t_address"
      },
      {
        "astId": 1770,
        "contract": "contracts/messaging/connectors/wormhole/WormholeHubConnector.sol:WormholeHubConnector",
        "label": "gasCap",
        "offset": 0,
        "slot": "4",
        "type": "t_uint256"
      },
      {
        "astId": 2917,
        "contract": "contracts/messaging/connectors/wormhole/WormholeHubConnector.sol:WormholeHubConnector",
        "label": "processedWhMessages",
        "offset": 0,
        "slot": "5",
        "type": "t_mapping(t_bytes32,t_bool)"
      }
    ],
    "types": {
      "t_address": {
        "encoding": "inplace",
        "label": "address",
        "numberOfBytes": "20"
      },
      "t_bool": {
        "encoding": "inplace",
        "label": "bool",
        "numberOfBytes": "1"
      },
      "t_bytes32": {
        "encoding": "inplace",
        "label": "bytes32",
        "numberOfBytes": "32"
      },
      "t_mapping(t_bytes32,t_bool)": {
        "encoding": "mapping",
        "key": "t_bytes32",
        "label": "mapping(bytes32 => bool)",
        "numberOfBytes": "32",
        "value": "t_bool"
      },
      "t_uint256": {
        "encoding": "inplace",
        "label": "uint256",
        "numberOfBytes": "32"
      }
    }
  }
}